{
  "contractName": "HelloEthereum",
  "abi": [
    {
      "constant": true,
      "inputs": [
        {
          "name": "",
          "type": "address"
        }
      ],
      "name": "people",
      "outputs": [
        {
          "name": "name",
          "type": "string"
        },
        {
          "name": "account",
          "type": "address"
        },
        {
          "name": "gender",
          "type": "uint8"
        },
        {
          "name": "age",
          "type": "uint256"
        },
        {
          "name": "registered",
          "type": "bool"
        },
        {
          "name": "lastTimeSaidHi",
          "type": "uint256"
        }
      ],
      "payable": false,
      "stateMutability": "view",
      "type": "function",
      "signature": "0x07de9735"
    },
    {
      "constant": true,
      "inputs": [],
      "name": "mainDev",
      "outputs": [
        {
          "name": "",
          "type": "address"
        }
      ],
      "payable": false,
      "stateMutability": "view",
      "type": "function",
      "signature": "0x87747f8e"
    },
    {
      "inputs": [],
      "payable": false,
      "stateMutability": "nonpayable",
      "type": "constructor",
      "signature": "constructor"
    },
    {
      "anonymous": false,
      "inputs": [
        {
          "indexed": true,
          "name": "oldMainDev",
          "type": "address"
        },
        {
          "indexed": true,
          "name": "newMainDev",
          "type": "address"
        }
      ],
      "name": "MainDevChanged",
      "type": "event",
      "signature": "0x670961b23b876e9c1eed2a49f4b5a9167973b5da8987eb840fe0f3844da8ec8d"
    },
    {
      "anonymous": false,
      "inputs": [
        {
          "indexed": false,
          "name": "oldMessageOracle",
          "type": "address"
        },
        {
          "indexed": true,
          "name": "newMessageOracle",
          "type": "address"
        }
      ],
      "name": "MessageOracleChanged",
      "type": "event",
      "signature": "0x387be41b801c79af3efaf2d095d4ef8f029f68b2f6edb532c14a87c3d79a72e4"
    },
    {
      "anonymous": false,
      "inputs": [
        {
          "indexed": true,
          "name": "account",
          "type": "address"
        },
        {
          "indexed": false,
          "name": "name",
          "type": "string"
        }
      ],
      "name": "PersonRegistered",
      "type": "event",
      "signature": "0x02cb9fdbcf0ed6dd2a532201c5303abb7895ea11e88096a88ba1bdc3aed68eef"
    },
    {
      "anonymous": false,
      "inputs": [
        {
          "indexed": true,
          "name": "account",
          "type": "address"
        },
        {
          "indexed": false,
          "name": "name",
          "type": "string"
        },
        {
          "indexed": false,
          "name": "message",
          "type": "bytes32"
        }
      ],
      "name": "HiEthereum",
      "type": "event",
      "signature": "0x2f7b2875a56f97370466f92125ddf972fac6c1021caa3a6aec3e4e4f7f73a983"
    },
    {
      "constant": false,
      "inputs": [
        {
          "name": "_newMainDev",
          "type": "address"
        }
      ],
      "name": "changeMainDev",
      "outputs": [
        {
          "name": "",
          "type": "bool"
        }
      ],
      "payable": false,
      "stateMutability": "nonpayable",
      "type": "function",
      "signature": "0x2dd1e4ff"
    },
    {
      "constant": false,
      "inputs": [
        {
          "name": "_messageOracleAddr",
          "type": "address"
        }
      ],
      "name": "setMessageOracle",
      "outputs": [
        {
          "name": "",
          "type": "bool"
        }
      ],
      "payable": false,
      "stateMutability": "nonpayable",
      "type": "function",
      "signature": "0xbcc5a00f"
    },
    {
      "constant": false,
      "inputs": [
        {
          "name": "_name",
          "type": "string"
        },
        {
          "name": "_gender",
          "type": "uint256"
        },
        {
          "name": "_age",
          "type": "uint256"
        }
      ],
      "name": "register",
      "outputs": [
        {
          "name": "",
          "type": "bool"
        }
      ],
      "payable": false,
      "stateMutability": "nonpayable",
      "type": "function",
      "signature": "0x90a9f837"
    },
    {
      "constant": false,
      "inputs": [],
      "name": "sayHi",
      "outputs": [
        {
          "name": "",
          "type": "bool"
        }
      ],
      "payable": false,
      "stateMutability": "nonpayable",
      "type": "function",
      "signature": "0x0c49c36c"
    },
    {
      "constant": true,
      "inputs": [],
      "name": "getCreationTime",
      "outputs": [
        {
          "name": "",
          "type": "uint256"
        }
      ],
      "payable": false,
      "stateMutability": "view",
      "type": "function",
      "signature": "0xe6519a35"
    },
    {
      "constant": true,
      "inputs": [
        {
          "name": "_account",
          "type": "address"
        }
      ],
      "name": "isPersonRegistered",
      "outputs": [
        {
          "name": "",
          "type": "bool"
        }
      ],
      "payable": false,
      "stateMutability": "view",
      "type": "function",
      "signature": "0xcfd6c606"
    }
  ],
  "bytecode": "0x608060405234801561001057600080fd5b50336000806101000a81548173ffffffffffffffffffffffffffffffffffffffff021916908373ffffffffffffffffffffffffffffffffffffffff160217905550426002819055506100606100c2565b604051809103906000f08015801561007c573d6000803e3d6000fd5b50600360006101000a81548173ffffffffffffffffffffffffffffffffffffffff021916908373ffffffffffffffffffffffffffffffffffffffff1602179055506100d2565b6040516108f38061122183390190565b611140806100e16000396000f3fe60806040526004361061008e576000357c0100000000000000000000000000000000000000000000000000000000900463ffffffff16806307de9735146100935780630c49c36c146101be5780632dd1e4ff146101ed57806387747f8e1461025657806390a9f837146102ad578063bcc5a00f146103a1578063cfd6c6061461040a578063e6519a3514610473575b600080fd5b34801561009f57600080fd5b506100e2600480360360208110156100b657600080fd5b81019080803573ffffffffffffffffffffffffffffffffffffffff16906020019092919050505061049e565b60405180806020018773ffffffffffffffffffffffffffffffffffffffff1673ffffffffffffffffffffffffffffffffffffffff16815260200186600281111561012857fe5b60ff16815260200185815260200184151515158152602001838152602001828103825288818151815260200191508051906020019080838360005b8381101561017e578082015181840152602081019050610163565b50505050905090810190601f1680156101ab5780820380516001836020036101000a031916815260200191505b5097505050505050505060405180910390f35b3480156101ca57600080fd5b506101d36105ac565b604051808215151515815260200191505060405180910390f35b3480156101f957600080fd5b5061023c6004803603602081101561021057600080fd5b81019080803573ffffffffffffffffffffffffffffffffffffffff169060200190929190505050610978565b604051808215151515815260200191505060405180910390f35b34801561026257600080fd5b5061026b610b08565b604051808273ffffffffffffffffffffffffffffffffffffffff1673ffffffffffffffffffffffffffffffffffffffff16815260200191505060405180910390f35b3480156102b957600080fd5b50610387600480360360608110156102d057600080fd5b81019080803590602001906401000000008111156102ed57600080fd5b8201836020820111156102ff57600080fd5b8035906020019184600183028401116401000000008311171561032157600080fd5b91908080601f016020809104026020016040519081016040528093929190818152602001838380828437600081840152601f19601f8201169050808301925050505050505091929192908035906020019092919080359060200190929190505050610b2d565b604051808215151515815260200191505060405180910390f35b3480156103ad57600080fd5b506103f0600480360360208110156103c457600080fd5b81019080803573ffffffffffffffffffffffffffffffffffffffff169060200190929190505050610dfe565b604051808215151515815260200191505060405180910390f35b34801561041657600080fd5b506104596004803603602081101561042d57600080fd5b81019080803573ffffffffffffffffffffffffffffffffffffffff169060200190929190505050610fb0565b604051808215151515815260200191505060405180910390f35b34801561047f57600080fd5b50610488611009565b6040518082815260200191505060405180910390f35b6001602052806000526040600020600091509050806000018054600181600116156101000203166002900480601f01602080910402602001604051908101604052809291908181526020018280546001816001161561010002031660029004801561054a5780601f1061051f5761010080835404028352916020019161054a565b820191906000526020600020905b81548152906001019060200180831161052d57829003601f168201915b5050505050908060010160009054906101000a900473ffffffffffffffffffffffffffffffffffffffff16908060010160149054906101000a900460ff16908060020154908060030160009054906101000a900460ff16908060040154905086565b6000600160003373ffffffffffffffffffffffffffffffffffffffff1673ffffffffffffffffffffffffffffffffffffffff16815260200190815260200160002060030160009054906101000a900460ff161515610698576040517f08c379a00000000000000000000000000000000000000000000000000000000081526004018080602001828103825260228152602001807f4f6e6c79207265676973746572656420706572736f6e20697320616c6c6f776581526020017f642e00000000000000000000000000000000000000000000000000000000000081525060400191505060405180910390fd5b42600a600160003373ffffffffffffffffffffffffffffffffffffffff1673ffffffffffffffffffffffffffffffffffffffff168152602001908152602001600020600401540111151515610755576040517f08c379a00000000000000000000000000000000000000000000000000000000081526004018080602001828103825260208152602001807f4f6e6c7920656c696769626c6520706572736f6e2063616e207361792068692e81525060200191505060405180910390fd5b61075d611013565b6000806001029050610790600360009054906101000a900473ffffffffffffffffffffffffffffffffffffffff1661105c565b1561085757600360009054906101000a900473ffffffffffffffffffffffffffffffffffffffff1673ffffffffffffffffffffffffffffffffffffffff1663ce6d41de6040518163ffffffff167c010000000000000000000000000000000000000000000000000000000002815260040160206040518083038186803b15801561081957600080fd5b505afa15801561082d573d6000803e3d6000fd5b505050506040513d602081101561084357600080fd5b810190808051906020019092919050505090505b3373ffffffffffffffffffffffffffffffffffffffff167f2f7b2875a56f97370466f92125ddf972fac6c1021caa3a6aec3e4e4f7f73a983600160003373ffffffffffffffffffffffffffffffffffffffff1673ffffffffffffffffffffffffffffffffffffffff1681526020019081526020016000206000018360405180806020018381526020018281038252848181546001816001161561010002031660029004815260200191508054600181600116156101000203166002900480156109615780601f1061093657610100808354040283529160200191610961565b820191906000526020600020905b81548152906001019060200180831161094457829003601f168201915b5050935050505060405180910390a2600191505090565b60008060009054906101000a900473ffffffffffffffffffffffffffffffffffffffff1673ffffffffffffffffffffffffffffffffffffffff163373ffffffffffffffffffffffffffffffffffffffff16141515610a3e576040517f08c379a000000000000000000000000000000000000000000000000000000000815260040180806020018281038252601f8152602001807f4f6e6c79206f776e65722063616e2070726f6365656420667572746865722e0081525060200191505060405180910390fd5b60008060009054906101000a900473ffffffffffffffffffffffffffffffffffffffff169050826000806101000a81548173ffffffffffffffffffffffffffffffffffffffff021916908373ffffffffffffffffffffffffffffffffffffffff1602179055508273ffffffffffffffffffffffffffffffffffffffff168173ffffffffffffffffffffffffffffffffffffffff167f670961b23b876e9c1eed2a49f4b5a9167973b5da8987eb840fe0f3844da8ec8d60405160405180910390a36001915050919050565b6000809054906101000a900473ffffffffffffffffffffffffffffffffffffffff1681565b60008280600280811115610b3d57fe5b10151515610bd9576040517f08c379a00000000000000000000000000000000000000000000000000000000081526004018080602001828103825260228152602001807f4f6e6c792076616c69642067656e6465722063616e2062652070726f7669646581526020017f642e00000000000000000000000000000000000000000000000000000000000081525060400191505060405180910390fd5b84600160003373ffffffffffffffffffffffffffffffffffffffff1673ffffffffffffffffffffffffffffffffffffffff1681526020019081526020016000206000019080519060200190610c2f92919061106f565b50836002811115610c3c57fe5b600160003373ffffffffffffffffffffffffffffffffffffffff1673ffffffffffffffffffffffffffffffffffffffff16815260200190815260200160002060010160146101000a81548160ff02191690836002811115610c9957fe5b021790555082600160003373ffffffffffffffffffffffffffffffffffffffff1673ffffffffffffffffffffffffffffffffffffffff1681526020019081526020016000206002018190555060018060003373ffffffffffffffffffffffffffffffffffffffff1673ffffffffffffffffffffffffffffffffffffffff16815260200190815260200160002060030160006101000a81548160ff0219169083151502179055503373ffffffffffffffffffffffffffffffffffffffff167f02cb9fdbcf0ed6dd2a532201c5303abb7895ea11e88096a88ba1bdc3aed68eef866040518080602001828103825283818151815260200191508051906020019080838360005b83811015610db8578082015181840152602081019050610d9d565b50505050905090810190601f168015610de55780820380516001836020036101000a031916815260200191505b509250505060405180910390a260019150509392505050565b60008060009054906101000a900473ffffffffffffffffffffffffffffffffffffffff1673ffffffffffffffffffffffffffffffffffffffff163373ffffffffffffffffffffffffffffffffffffffff16141515610ec4576040517f08c379a000000000000000000000000000000000000000000000000000000000815260040180806020018281038252601f8152602001807f4f6e6c79206f776e65722063616e2070726f6365656420667572746865722e0081525060200191505060405180910390fd5b6000600360009054906101000a900473ffffffffffffffffffffffffffffffffffffffff16905082600360006101000a81548173ffffffffffffffffffffffffffffffffffffffff021916908373ffffffffffffffffffffffffffffffffffffffff1602179055508273ffffffffffffffffffffffffffffffffffffffff167f387be41b801c79af3efaf2d095d4ef8f029f68b2f6edb532c14a87c3d79a72e482604051808273ffffffffffffffffffffffffffffffffffffffff1673ffffffffffffffffffffffffffffffffffffffff16815260200191505060405180910390a26001915050919050565b6000600160008373ffffffffffffffffffffffffffffffffffffffff1673ffffffffffffffffffffffffffffffffffffffff16815260200190815260200160002060030160009054906101000a900460ff169050919050565b6000600254905090565b42600160003373ffffffffffffffffffffffffffffffffffffffff1673ffffffffffffffffffffffffffffffffffffffff16815260200190815260200160002060040181905550565b600080823b905060008111915050919050565b828054600181600116156101000203166002900490600052602060002090601f016020900481019282601f106110b057805160ff19168380011785556110de565b828001600101855582156110de579182015b828111156110dd5782518255916020019190600101906110c2565b5b5090506110eb91906110ef565b5090565b61111191905b8082111561110d5760008160009055506001016110f5565b5090565b9056fea165627a7a723058200206789052c592525e3f02a216e88d8ffb3efc85662522dc3a6649e4912496e60029608060405234801561001057600080fd5b50336000806101000a81548173ffffffffffffffffffffffffffffffffffffffff021916908373ffffffffffffffffffffffffffffffffffffffff16021790555060018060018154018082558091505090600182039060005260206000200160007f4927642072617468657220626520612062697264207468616e206120666973689091909150555060018060018154018082558091505090600182039060005260206000200160007f546865206c616b652069732061206c6f6e67207761792066726f6d20686572659091909150555060018060018154018082558091505090600182039060005260206000200160007f4368726973746d617320697320636f6d696e67000000000000000000000000009091909150555060018060018154018082558091505090600182039060005260206000200160007f446f6e27742073746570206f6e207468652062726f6b656e20676c61737300009091909150555060018060018154018082558091505090600182039060005260206000200160007f4920686561722074686174204e616e63792069732076657279207072657474799091909150555060018060018154018082558091505090600182039060005260206000200160007f576520686176652061206c6f74206f66207261696e20696e204a756e650000009091909150555060018060018154018082558091505090600182039060005260206000200160007f54776f207365617473207765726520766163616e7400000000000000000000009091909150555060018060018154018082558091505090600182039060005260206000200160007f506c656173652077616974206f757473696465206f662074686520686f7573659091909150555060018060018154018082558091505090600182039060005260206000200160007f5368652064696420686572206265737420746f2068656c702068696d000000009091909150555060018060018154018082558091505090600182039060005260206000200160007f54686520737472616e676572206f66666963696174657320746865206d65616c909190915055506105c3806103306000396000f3fe60806040526004361061006d576000357c0100000000000000000000000000000000000000000000000000000000900463ffffffff168063024aebcd146100725780630d80fefd146100c55780632dd1e4ff1461011457806387747f8e1461017d578063ce6d41de146101d4575b600080fd5b34801561007e57600080fd5b506100ab6004803603602081101561009557600080fd5b81019080803590602001909291905050506101ff565b604051808215151515815260200191505060405180910390f35b3480156100d157600080fd5b506100fe600480360360208110156100e857600080fd5b8101908080359060200190929190505050610331565b6040518082815260200191505060405180910390f35b34801561012057600080fd5b506101636004803603602081101561013757600080fd5b81019080803573ffffffffffffffffffffffffffffffffffffffff169060200190929190505050610354565b604051808215151515815260200191505060405180910390f35b34801561018957600080fd5b506101926104e4565b604051808273ffffffffffffffffffffffffffffffffffffffff1673ffffffffffffffffffffffffffffffffffffffff16815260200191505060405180910390f35b3480156101e057600080fd5b506101e9610509565b6040518082815260200191505060405180910390f35b60008060009054906101000a900473ffffffffffffffffffffffffffffffffffffffff1673ffffffffffffffffffffffffffffffffffffffff163373ffffffffffffffffffffffffffffffffffffffff161415156102c5576040517f08c379a000000000000000000000000000000000000000000000000000000000815260040180806020018281038252601f8152602001807f4f6e6c79206f776e65722063616e2070726f6365656420667572746865722e0081525060200191505060405180910390fd5b60018290806001815401808255809150509060018203906000526020600020016000909192909190915055507f2faea3886735264943b7ccb3a9334dd45a334ea8ed2467cdaa68a7bbb1b32c9d826040518082815260200191505060405180910390a160019050919050565b60018181548110151561034057fe5b906000526020600020016000915090505481565b60008060009054906101000a900473ffffffffffffffffffffffffffffffffffffffff1673ffffffffffffffffffffffffffffffffffffffff163373ffffffffffffffffffffffffffffffffffffffff1614151561041a576040517f08c379a000000000000000000000000000000000000000000000000000000000815260040180806020018281038252601f8152602001807f4f6e6c79206f776e65722063616e2070726f6365656420667572746865722e0081525060200191505060405180910390fd5b60008060009054906101000a900473ffffffffffffffffffffffffffffffffffffffff169050826000806101000a81548173ffffffffffffffffffffffffffffffffffffffff021916908373ffffffffffffffffffffffffffffffffffffffff1602179055508273ffffffffffffffffffffffffffffffffffffffff168173ffffffffffffffffffffffffffffffffffffffff167f670961b23b876e9c1eed2a49f4b5a9167973b5da8987eb840fe0f3844da8ec8d60405160405180910390a36001915050919050565b6000809054906101000a900473ffffffffffffffffffffffffffffffffffffffff1681565b6000600180805490503343604051602001808373ffffffffffffffffffffffffffffffffffffffff1673ffffffffffffffffffffffffffffffffffffffff16815260200182815260200192505050604051602081830303815290604052805190602001206001900481151561057a57fe5b0681548110151561058757fe5b906000526020600020015490509056fea165627a7a72305820efdc937fcd4ae7053006efede4de75e263dd45bc22e011664fef588a559f24890029",
  "source": "pragma solidity >=0.4.0 <0.6.0;\n\nimport \"./MessageOracle.sol\";\n\n/**\n * @title This is a sample contract for learning Ethereum and Solidity.\n * @author Scotiabank DF Blockchain Team\n */\n\ncontract HelloEthereum {\n\n    /* Events - START */\n    // Indexed arguments in a event are made filterable in the user interface.\n    // Only up to 3 indexed arguments are allowed.\n    event MainDevChanged(address indexed oldMainDev, address indexed newMainDev);\n    event MessageOracleChanged(address oldMessageOracle, address indexed newMessageOracle);\n    event PersonRegistered(address indexed account, string name);\n    event HiEthereum(address indexed account, string name, bytes32 message);\n    /* Events - END */\n\n    /* Enum & Strut - START */\n    enum Gender {\n        Male,\n        Female,\n        Undisclosed\n    }\n\n    struct Person {\n        string name;\n        address account;\n        Gender gender;\n        uint age;\n        bool registered;\n        uint lastTimeSaidHi;\n    }\n    /* Enum & Strut - END */\n\n    /* State Variables - START */\n    // Constant state variable that cannot be changed later.\n    uint constant SAY_HI_LOCK_DURATION = 10 seconds;\n\n    address public mainDev;\n    // Mapping from addresses to struct Person.\n    mapping (address => Person) public people;\n\n    uint private creationTime;\n    // A state variable for keeping track of and talking to MessageOracle which is another smart contract.\n    MessageOracle private messageOracle;\n    /* State Variables - END */\n\n    /* Modifiers - START */\n    modifier onlyMainDev {\n        // Require if the shortcut for if (...) throw. Here, we \n        // are restricting the message sender to be the mainDev\n        // and throw otherwise which will revert all state changes.\n        require(msg.sender == mainDev, \"Only owner can proceed further.\");\n\n        // _; is the placeholder for where the function codes will be inserted in.\n        // Note: more codes can be placed after _; in valid use case as a post-process.\n        _;\n    }\n\n    modifier onlyRegisteredPerson { \n        require(people[msg.sender].registered, \"Only registered person is allowed.\");\n        _;\n    }\n\n    modifier onlyEligiblePerson { \n        require(people[msg.sender].lastTimeSaidHi + SAY_HI_LOCK_DURATION <= now, \"Only eligible person can say hi.\");\n        _; \n    }\n\n    // Function arguments can be passed into a modifier, _gender in this case.\n    modifier onlyValidGender(uint _gender) { \n        require(uint(Gender.Undisclosed) >= _gender, \"Only valid gender can be provided.\");\n        _;\n    }\n    /* Modifiers - END */\n\n    /* Constructor - START */\n    constructor () public {\n        // msg.sender is the direct sender of this message, but not necessarily \n        // the original sender of the transaction. mainDev will be the creator\n        // of this smart contract in the beginning.\n        mainDev = msg.sender;\n        // now is an alias for block.timestamp, which is current block timestamp \n        // as seconds since unix epoch.\n        creationTime = now;\n        // Initialize the messageOracle smart contract variable with the provided address.\n        // Note that this is not creating a new smart contract but using a existing one and \n        // this is line neither verifies if the given address is for a contract nor if it is \n        // an actual messageOracle contract.\n        messageOracle = new MessageOracle();\n    }\n    /* Constructor - END */\n\n    /* Public Functions - START */\n    /** @dev Change the mainDev. Only accessible by the mainDev.\n      *\n      * @param _newMainDev Address of the new mainDev.\n      *\n      * @return true if execution succeeded, false otherwise.\n      */\n    function changeMainDev(address _newMainDev) public onlyMainDev returns(bool) {\n        address _oldMainDev = mainDev;\n        mainDev = _newMainDev;\n\n        // This is how we log a specific event in solidity.\n        // Note that 'this' in the line below refers to the address of this smart\n        // contract. This variable is not available in the constructor though as \n        // the contract has not been deployed yet and has not acquired an address.\n        emit MainDevChanged(_oldMainDev, _newMainDev);\n\n        return true;\n    }\n\n    /** @dev Change the messageOracle. Only accessible by the mainDev.\n      *\n      * @param _messageOracleAddr Address of the new messageOracle.\n      *\n      * @return true if execution succeeded, false otherwise.\n      */\n    function setMessageOracle(address _messageOracleAddr) public onlyMainDev returns(bool) {\n        address _oldMessageOracleAddr = address(messageOracle);\n        messageOracle = MessageOracle(_messageOracleAddr);\n\n        emit MessageOracleChanged(_oldMessageOracleAddr, _messageOracleAddr);\n\n        return true;\n    }\n\n    /** @dev Register a new person. Only accessible by the mainDev.\n      *\n      * @param _name Name of the person.\n      * ...\n      * @param _gender Gender of the person. 0 - Male, 1 - Female, 2 - Undisclosed, all other values will not be accepted.\n      * ...\n      *\n      * @return true if execution succeeded, false otherwise.\n      */\n    function register(string memory _name, uint _gender, uint _age) public onlyValidGender(_gender) returns(bool) {\n        // Set each individual field in the target Person struct. Since people is\n        // a mapping from addresses to Person, the struct needs not to be manually\n        // initialized.\n        people[msg.sender].name = _name;\n        people[msg.sender].gender = Gender(_gender);\n        people[msg.sender].age = _age;\n        people[msg.sender].registered = true;\n\n        emit PersonRegistered(msg.sender, _name);\n\n        return true;\n    }\n\n    /** @dev Say hi to ethereum. Only accessible by registered people and can only be called once by the same person in every 10 seconds.\n      *\n      * @return true if execution succeeded, false otherwise.\n      */\n    // When multiple modifiers are put onto the same function, they are called in sequence \n    // and then the actual function codes get run.\n    function sayHi() public onlyRegisteredPerson onlyEligiblePerson returns(bool) {\n        // Calling a internal function.\n        updateSayHiTime();\n\n        bytes32 _message = bytes32(0);\n        if (isContract(address(messageOracle))) {\n            _message = messageOracle.getMessage();\n        }\n        emit HiEthereum(msg.sender, people[msg.sender].name, _message);\n\n        return true;\n    }\n\n    /* Constant Function - START */\n    /** @return the creation time of this smart contract.\n      */\n    function getCreationTime() public view returns(uint) {\n        return creationTime;\n    }\n\n    /** @return true if the given address is registered, false otherwise.\n      */\n    function isPersonRegistered(address _account) public view returns(bool) {\n        return people[_account].registered;\n    }\n    /* Constant Function - END */\n    /* Public Functions - END */\n\n    /* Internal Functions - START */\n    function updateSayHiTime() internal {\n        people[msg.sender].lastTimeSaidHi = now;\n    }\n\n    function isContract(address _addr) internal view returns (bool) {\n        uint _size;\n        assembly { _size := extcodesize(_addr) }\n        return _size > 0;\n    }\n    /* Internal Functions - END */\n}\n",
  "sourcePath": "/Users/keerthinelaturu/Keerthi/source/eth-demo/contracts/HelloEthereum.sol",
  "compiler": {
    "name": "solc",
    "version": "0.5.0+commit.1d4f565a.Emscripten.clang"
  },
  "schemaVersion": "3.0.1",
  "updatedAt": "2019-01-24T01:51:37.680Z",
  "devdoc": {
    "author": "Scotiabank DF Blockchain Team",
    "methods": {
      "changeMainDev(address)": {
        "details": "Change the mainDev. Only accessible by the mainDev.",
        "params": {
          "_newMainDev": "Address of the new mainDev."
        },
        "return": "true if execution succeeded, false otherwise."
      },
      "getCreationTime()": {
        "return": "the creation time of this smart contract."
      },
      "isPersonRegistered(address)": {
        "return": "true if the given address is registered, false otherwise."
      },
      "register(string,uint256,uint256)": {
        "details": "Register a new person. Only accessible by the mainDev.",
        "params": {
          "_gender": "Gender of the person. 0 - Male, 1 - Female, 2 - Undisclosed, all other values will not be accepted. ...",
          "_name": "Name of the person. ..."
        },
        "return": "true if execution succeeded, false otherwise."
      },
      "sayHi()": {
        "details": "Say hi to ethereum. Only accessible by registered people and can only be called once by the same person in every 10 seconds.",
        "return": "true if execution succeeded, false otherwise."
      },
      "setMessageOracle(address)": {
        "details": "Change the messageOracle. Only accessible by the mainDev.",
        "params": {
          "_messageOracleAddr": "Address of the new messageOracle."
        },
        "return": "true if execution succeeded, false otherwise."
      }
    },
    "title": "This is a sample contract for learning Ethereum and Solidity."
  },
  "userdoc": {
    "methods": {}
  }
}