{
  "contractName": "MessageOracle",
  "abi": [
    {
      "constant": true,
      "inputs": [
        {
          "name": "",
          "type": "uint256"
        }
      ],
      "name": "messages",
      "outputs": [
        {
          "name": "",
          "type": "bytes32"
        }
      ],
      "payable": false,
      "stateMutability": "view",
      "type": "function"
    },
    {
      "constant": true,
      "inputs": [],
      "name": "mainDev",
      "outputs": [
        {
          "name": "",
          "type": "address"
        }
      ],
      "payable": false,
      "stateMutability": "view",
      "type": "function"
    },
    {
      "inputs": [],
      "payable": false,
      "stateMutability": "nonpayable",
      "type": "constructor"
    },
    {
      "anonymous": false,
      "inputs": [
        {
          "indexed": true,
          "name": "oldMainDev",
          "type": "address"
        },
        {
          "indexed": true,
          "name": "newMainDev",
          "type": "address"
        }
      ],
      "name": "MainDevChanged",
      "type": "event"
    },
    {
      "anonymous": false,
      "inputs": [
        {
          "indexed": false,
          "name": "message",
          "type": "bytes32"
        }
      ],
      "name": "MessageAdded",
      "type": "event"
    },
    {
      "constant": false,
      "inputs": [
        {
          "name": "_newMainDev",
          "type": "address"
        }
      ],
      "name": "changeMainDev",
      "outputs": [
        {
          "name": "",
          "type": "bool"
        }
      ],
      "payable": false,
      "stateMutability": "nonpayable",
      "type": "function"
    },
    {
      "constant": false,
      "inputs": [
        {
          "name": "_message",
          "type": "bytes32"
        }
      ],
      "name": "addMessage",
      "outputs": [
        {
          "name": "",
          "type": "bool"
        }
      ],
      "payable": false,
      "stateMutability": "nonpayable",
      "type": "function"
    },
    {
      "constant": true,
      "inputs": [],
      "name": "getMessage",
      "outputs": [
        {
          "name": "",
          "type": "bytes32"
        }
      ],
      "payable": false,
      "stateMutability": "view",
      "type": "function"
    }
  ],
  "bytecode": "0x608060405234801561001057600080fd5b50336000806101000a81548173ffffffffffffffffffffffffffffffffffffffff021916908373ffffffffffffffffffffffffffffffffffffffff16021790555060018060018154018082558091505090600182039060005260206000200160007f4927642072617468657220626520612062697264207468616e206120666973689091909150555060018060018154018082558091505090600182039060005260206000200160007f546865206c616b652069732061206c6f6e67207761792066726f6d20686572659091909150555060018060018154018082558091505090600182039060005260206000200160007f4368726973746d617320697320636f6d696e67000000000000000000000000009091909150555060018060018154018082558091505090600182039060005260206000200160007f446f6e27742073746570206f6e207468652062726f6b656e20676c61737300009091909150555060018060018154018082558091505090600182039060005260206000200160007f4920686561722074686174204e616e63792069732076657279207072657474799091909150555060018060018154018082558091505090600182039060005260206000200160007f576520686176652061206c6f74206f66207261696e20696e204a756e650000009091909150555060018060018154018082558091505090600182039060005260206000200160007f54776f207365617473207765726520766163616e7400000000000000000000009091909150555060018060018154018082558091505090600182039060005260206000200160007f506c656173652077616974206f757473696465206f662074686520686f7573659091909150555060018060018154018082558091505090600182039060005260206000200160007f5368652064696420686572206265737420746f2068656c702068696d000000009091909150555060018060018154018082558091505090600182039060005260206000200160007f54686520737472616e676572206f66666963696174657320746865206d65616c909190915055506105c3806103306000396000f3fe60806040526004361061006d576000357c0100000000000000000000000000000000000000000000000000000000900463ffffffff168063024aebcd146100725780630d80fefd146100c55780632dd1e4ff1461011457806387747f8e1461017d578063ce6d41de146101d4575b600080fd5b34801561007e57600080fd5b506100ab6004803603602081101561009557600080fd5b81019080803590602001909291905050506101ff565b604051808215151515815260200191505060405180910390f35b3480156100d157600080fd5b506100fe600480360360208110156100e857600080fd5b8101908080359060200190929190505050610331565b6040518082815260200191505060405180910390f35b34801561012057600080fd5b506101636004803603602081101561013757600080fd5b81019080803573ffffffffffffffffffffffffffffffffffffffff169060200190929190505050610354565b604051808215151515815260200191505060405180910390f35b34801561018957600080fd5b506101926104e4565b604051808273ffffffffffffffffffffffffffffffffffffffff1673ffffffffffffffffffffffffffffffffffffffff16815260200191505060405180910390f35b3480156101e057600080fd5b506101e9610509565b6040518082815260200191505060405180910390f35b60008060009054906101000a900473ffffffffffffffffffffffffffffffffffffffff1673ffffffffffffffffffffffffffffffffffffffff163373ffffffffffffffffffffffffffffffffffffffff161415156102c5576040517f08c379a000000000000000000000000000000000000000000000000000000000815260040180806020018281038252601f8152602001807f4f6e6c79206f776e65722063616e2070726f6365656420667572746865722e0081525060200191505060405180910390fd5b60018290806001815401808255809150509060018203906000526020600020016000909192909190915055507f2faea3886735264943b7ccb3a9334dd45a334ea8ed2467cdaa68a7bbb1b32c9d826040518082815260200191505060405180910390a160019050919050565b60018181548110151561034057fe5b906000526020600020016000915090505481565b60008060009054906101000a900473ffffffffffffffffffffffffffffffffffffffff1673ffffffffffffffffffffffffffffffffffffffff163373ffffffffffffffffffffffffffffffffffffffff1614151561041a576040517f08c379a000000000000000000000000000000000000000000000000000000000815260040180806020018281038252601f8152602001807f4f6e6c79206f776e65722063616e2070726f6365656420667572746865722e0081525060200191505060405180910390fd5b60008060009054906101000a900473ffffffffffffffffffffffffffffffffffffffff169050826000806101000a81548173ffffffffffffffffffffffffffffffffffffffff021916908373ffffffffffffffffffffffffffffffffffffffff1602179055508273ffffffffffffffffffffffffffffffffffffffff168173ffffffffffffffffffffffffffffffffffffffff167f670961b23b876e9c1eed2a49f4b5a9167973b5da8987eb840fe0f3844da8ec8d60405160405180910390a36001915050919050565b6000809054906101000a900473ffffffffffffffffffffffffffffffffffffffff1681565b6000600180805490503343604051602001808373ffffffffffffffffffffffffffffffffffffffff1673ffffffffffffffffffffffffffffffffffffffff16815260200182815260200192505050604051602081830303815290604052805190602001206001900481151561057a57fe5b0681548110151561058757fe5b906000526020600020015490509056fea165627a7a72305820efdc937fcd4ae7053006efede4de75e263dd45bc22e011664fef588a559f24890029",
  "source": "pragma solidity >=0.4.0 <0.6.0;\n\ncontract MessageOracle {\n\n    /* Events - START */\n    event MainDevChanged(address indexed oldMainDev, address indexed newMainDev);\n    event MessageAdded(bytes32 message);\n    /* Events - END */\n\n    /* Modifiers - START */\n    modifier onlyMainDev {\n        require(msg.sender == mainDev, \"Only owner can proceed further.\");\n        _;\n    }\n    /* Modifiers - END */\n\n    address public mainDev;\n    bytes32[] public messages;\n\n    /* Constructor - START */\n    constructor() public {\n        mainDev = msg.sender;\n\n        messages.push(\"I'd rather be a bird than a fish\");\n        messages.push(\"The lake is a long way from here\");\n        messages.push(\"Christmas is coming\");\n        messages.push(\"Don't step on the broken glass\");\n        messages.push(\"I hear that Nancy is very pretty\");\n        messages.push(\"We have a lot of rain in June\");\n        messages.push(\"Two seats were vacant\");\n        messages.push(\"Please wait outside of the house\");\n        messages.push(\"She did her best to help him\");\n        messages.push(\"The stranger officiates the meal\");\n    }\n    /* Constructor - END */\n\n    function changeMainDev(address _newMainDev) public onlyMainDev returns(bool) {\n        address _oldMainDev = mainDev;\n        mainDev = _newMainDev;\n\n        emit MainDevChanged(_oldMainDev, _newMainDev);\n\n        return true;\n    }\n\n    function addMessage(bytes32 _message) public onlyMainDev returns(bool) {\n        messages.push(_message);\n\n        emit MessageAdded(_message);\n\n        return true;\n    }\n\n    function getMessage() public view returns(bytes32) {\n        return messages[uint(keccak256(abi.encode(msg.sender, block.number))) % messages.length];\n    }\n}",
  "sourcePath": "/Users/keerthinelaturu/Keerthi/source/eth-demo/contracts/MessageOracle.sol",
  "compiler": {
    "name": "solc",
    "version": "0.5.0+commit.1d4f565a.Emscripten.clang"
  },
  "schemaVersion": "3.0.1",
  "updatedAt": "2019-01-24T01:51:30.892Z",
  "devdoc": {
    "methods": {}
  },
  "userdoc": {
    "methods": {}
  }
}